:100000000C9490000C94A7000C94A7000C94A700EB
:100010000C94A7000C94A7000C94A7000C94A700C4
:100020000C94A7000C94A7000C94A7000C94A700B4
:100030000C94A7000C94A7000C94A7000C94A700A4
:100040000C94A7000C94A7000C94A7000C94A70094
:100050000C94A7000C94A7000C94A7000C94A70084
:100060000C94A7000C94A7000C94A7000C94A70074
:100070000C94A7000C94A7000C94A7000C94A70064
:100080000C94A7000C94A7000C94A7000C94A70054
:100090000C94A7000C94A7000C94A7000C94A70044
:1000A0000C94A7000C94A7000C94A7000C94A70034
:1000B0000C94A7000C94A7000C94A7000C94A70024
:1000C0000C94A7000C94A7000C94A7000C94A70014
:1000D0000C94A7000C94A7000C94A7000C94A70004
:1000E0000C94A7000C94A7000C94A7000C94A700F4
:1000F0000C94A7000C94A7000C94A7000C94A700E4
:100100000C94A7000C94A7000C94A7000C94A700D3
:100110000C94A7000C94A7000C94A7000C94A700C3
:1001200011241FBECFEFD1E4DEBFCDBF12E0A0E0AF
:10013000B2E0ECE5F1E000E00BBF02C007900D92E9
:10014000A030B107D9F70E94A9000C94AC000C9420
:0C015000000080E090E00895F894FFCFDC
:00000001FF
